:100A560053797374656D20526561647900526169DA
:100A66006E20446574656374656421005265747212
:100A7600696576696E672E2E2E0053706565643A39
:100A860020323525002B3937373938313530303774
:100A960038303500436C6F74686573205265747224
:100AA60069657665640054696D657220436F6D7083
:100AB6006C657465210052656C656173696E672E9D
:100AC6002E2E0053706565643A2032302500436C43
:100AD6006F746865732052656C6561736564004167
:100AE600540041542B434D47463D310041542B435E
:050AF6004D47533D00D7
:100E3800011619011500041100000000C101C100CC
:03000B00020C18CC
:100C1800C0E0C0F0C083C082C0D075D000C000C0A2
:100C280001C002C003C004C005C006C007C28D755C
:100C38008C4B758AFEB2B5E5142401F514E435131E
:100C4800F513E43512F512E43511F511E47F28FEA9
:100C5800FDFCAB14AA13A912A811C3120B7B4012F6
:100C6800D201C200C28C751400751300751200758C
:100C78001100D007D006D005D004D003D002D0018F
:0D0C8800D000D0D0D082D083D0F0D0E032A8
:050E9800D2A3C2A42258
:050E9D00C2A3D2A42253
:050EA200C2A3C2A4225E
:060E9100E4FF0FBF23FC8B
:010E97002238
:100D0200EEC313FEEF13FDAC06E4FBFAC3EB9DEA60
:100D12009C5030D2A3C2A4E4FEEEC3951650061234
:100D22000E910E80F4C2A3C2A4E4FEC374649516AD
:100D3200FFEEC39F5006120E910E80EF0BBB000117
:060D42000A80C9020EA2A6
:100D4800EEC313FEEF13FDAC06E4FBFAC3EB9DEA1A
:100D58009C5030C2A3D2A4E4FEEEC39516500612EE
:100D68000E910E80F4C2A3C2A4E4FEC37464951667
:100D7800FFEEC39F5006120E910E80EF0BBB0001D1
:060D88000A80C9020EA260
:100E2500EFD3946440027F64EFC3940550027F05BD
:030E35008F1622F3
:060996008F178C188D196B
:10099C0085161A751B0AAE18AF197C007D0A120B4E
:1009AC00268F828E837905E9D3951A5020AF0112D8
:1009BC000E25E517AF82AE83B40105120D0280033C
:1009CC00120D48E51A851BF08429F980DAAF1A124A
:1009DC000E25E517B4011EE58225E0FFE58333FE05
:1009EC00AD1B7C00120B14C3E5199FFFE5189EFE8E
:1009FC00120D02801CE58225E0FFE58333FEAD1B62
:100A0C007C00120B14C3E5199FFFE5189EFE120D16
:100A1C0048A91AE9C394054029AF01120E25E51720
:100A2C00AF82AE83B40105120D028003120D48E9AA
:100A3C00D39405400DE51A851BF084FFC3E99FF99B
:0A0A4C0080D1120EA2AF1A020E258F
:100E0500E58954F04401F589758C4B758AFED2A9A4
:100E1500E4F514F513F512F511C201D200D28C22B6
:090E8000D2AF30000343870122C8
:10080000D2AFC2A3C2A4120E587F80120E677BFF24
:100810007A0A7956120D947F320208DE20B703025D
:1008200008EE30B20930B30630B4030208B8C2B7DC
:10083000120E587F80120E677BFF7A0A7963120DC1
:10084000947F327E00120DC07F01120E67120EA738
:100850007F19120E25120E587F80120E677BFF7AC9
:100860000A7972120D947FC0120E677BFF7A0A79A3
:1008700080120D947F1E7E00120DC07F01120E6744
:10088000120EA77FDC7E05120D02120E49750BFFBA
:10089000750C0A750D9A120C95120E587FC0120E27
:1008A000677BFF7A0A799A120D947F327E00120DCF
:1008B000C07F01120E678000120EA7120E052001E4
:1008C00005120E8080F820010302081C120E587FCA
:1008D00001120E677F80120E67120D8E7F0A7E0056
:1008E000120DC07F01120E67120EA702081C20B263
:1008F0000620B30330B470D2B77F14120E25120E47
:10090000587F80120E677BFF7A0A79BC120D947FA4
:10091000C0120E677BFF7A0A79C9120D947F1E7E82
:1009200000120DC07F01120E67120EA77FB07E0469
:10093000120D48120E49750BFF750C0A750DD41275
:100940000C95120E587F01120E677FC0120E677B46
:10095000FF7A0A79D4120D947F327E00120DC07F87
:1009600001120E67120EA7120E05200105120E804D
:1009700080F820010302081C120E587F01120E6736
:100980007F80120E67120D8E120DBC7F01120E6752
:06099000120EA702081C74
:070DB900120E677F0A7E00A5
:100DC000E4FDFCC3ED9FEC9E5015E4FBFA0BBB0069
:0F0DD000010ABA04F8BBFBF50DBD00010C80E46D
:010DDF0022F1
:0F0E4900759850758920758DFD758BFDD28E22A1
:080E89008F993099FDC29922F6
:100DE0008B0E8A0F8910AB0EAA0FA910120AFB6096
:100DF000130510E5107002050F14F9120AFBFF121B
:050E00000E8980E222D2
:060C95007BFF7A0A798B57
:100C9B008B088A09890A7BFF7A0A79E5120DE07FB6
:100CAB000D120E897F647E00120DC07BFF7A0A79CC
:100CBB00E8120DE07F0D120E897F64120DC07BFFD1
:100CCB007A0A79F2120DE07F22120E89AB08AA097B
:100CDB00A90A120DE07F22120E897F0D120E897F59
:100CEB0064120DC0AB0BAA0CA90D120DE07F1A12EA
:070CFB000E897F64020DC0A9
:050EA7007F08020E6748
:0E0E67008F80C2A0C2A1D2A2120DBCC2A222D4
:0B0E75008F80D2A0C2A1D2A2C2A22294
:0F0E58007F38120DB97F0E120DB97F01020E67A0
:060D8E007BFF7A0A79AC3C
:100D94008B088A09890AAB08AA09A90A120AFB6006
:100DA40013050AE50A7002050914F9120AFBFF1279
:050DB4000E7580E22233
:03000000020B8C64
:0C0B8C00787FE4F6D8FD758120020BD3C1
:100AFB00BB010689828A83E0225002E722BBFE02F9
:090B0B00E32289828A83E493222B
:100B1400EF8DF0A4A8F0CF8CF0A428CE8DF0A42EF5
:020B2400FE22AF
:100B2600BC000BBE0029EF8DF084FFADF022E4CCB3
:100B3600F875F008EF2FFFEE33FEEC33FCEE9DEC7C
:100B4600984005FCEE9DFE0FD5F0E9E4CEFD22EDC2
:100B5600F8F5F0EE8420D21CFEADF075F008EF2F0C
:100B6600FFED33FD4007985006D5F0F222C398FDFD
:050B76000FD5F0EA229A
:100B7B00EB9FF5F0EA9E42F0E99D42F0E89C45F0D0
:010B8B002247
:100B9800020800E493A3F8E493A34003F68001F26B
:100BA80008DFF48029E493A3F85407240CC8C3335E
:100BB800C4540F4420C8834004F456800146F6DF2D
:100BC800E4800B0102040810204080900E38E47E77
:100BD800019360BCA3FF543F30E509541FFEE49322
:100BE800A360010ECF54C025E060A840B8E493A3E9
:100BF800FAE493A3F8E493A3C8C582C8CAC583CA14
:100C0800F0A3C8C582C8CAC583CADFE9DEE780BECB
:010E480000A9
:00000001FF
