:100A3F0053797374656D20526561647900526169F1
:100A4F006E20446574656374656421002B393737F4
:100A5F003938313530303738303500436C6F746882
:100A6F006573205265747269657665640054696DAB
:100A7F00657220436F6D706C6574652100436C6FF8
:100A8F00746865732052656C6561736564004154C9
:100A9F000041542B434D47463D310041542B434DAC
:040AAF0047533D006C
:0A0C1800041100000000C101C1003A
:03000B000209C225
:1009C200C0E0C0F0C083C082C0D075D000C000C0FB
:1009D20001C002C003C004C005C006C007C28D75B5
:1009E2008C4B758AFEB2B5E5142401F514E4351377
:1009F200F513E43512F512E43511F511E47F28FE02
:100A0200FDFCAB14AA13A912A811C3120B64401265
:100A1200D201C200C28C75140075130075120075E4
:100A22001100D007D006D005D004D003D002D001E7
:0D0A3200D000D0D0D082D083D0F0D0E03200
:050C3400D2A3C2A422BE
:050C3900C2A3D2A422B9
:050C3E00C2A3C2A422C4
:100BC100E58954F04401F589758C4B758AFED2A9EB
:100BD100E4F514F513F512F511C201D200D28C22FD
:090C2300D2AF3000034387012227
:10080000D2AFC2A3C2A4120BF07F80120BFF7BFFFA
:100810007A0A793F120B267F320208AB20B7030217
:1008200008BB30B20630B30320B45DC2B7120BF080
:100830007F80120BFF7BFF7A0A794C120B267F32E6
:100840007E00120B7C7F01120BFF120C43120C3442
:100850007F647E00120B7C120C3E120BE1750BFFC5
:10086000750C0A750D6A120AB3120BF07FC0120BD9
:10087000FF7BFF7A0A796A120B267F327E00120B09
:100880007C7F01120BFF8000120C43120BC1200170
:1008900005120C2380F8300183120BF07F01120B3C
:1008A000FF7F80120BFF120B207F0A7E00120B7C51
:1008B0007F01120BFF120C4302081C30B24930B307
:1008C0004630B443D2B7120C397F647E00120B7CE1
:1008D000120C3E120BE1750BFF750C0A750D8C1294
:1008E0000AB3120BF07F01120BFF7FC0120BFF7BCC
:1008F000FF7A0A798C120B267F327E00120B7C7FE6
:1009000001120BFF120C43120BC1200105120C2324
:1009100080F820010302081C120BF07F01120BFF6C
:100920007F80120BFF120B20120B787F01120BFF3E
:06093000120C4302081C3A
:070B7500120BFF7F0A7E0056
:100B7C00E4FDFCC3ED9FEC9E5015E4FBFA0BBB00AF
:0F0B8C00010ABA04F8BBFBF50DBD00010C80E4B3
:010B9B002237
:0F0BE100759850758920758DFD758BFDD28E220C
:080C2C008F993099FDC2992255
:100B9C008B0E8A0F8910AB0EAA0FA910120B4B608B
:100BAC00130510E5107002050F14F9120B4BFF1210
:050BBC000C2C80E22278
:060AB3007BFF7A0A795B6B
:100AB9008B088A09890A7BFF7A0A799D120B9C7F28
:100AC9000D120C2C7F647E00120B7C7BFF7A0A7955
:100AD900A0120B9C7F0D120C2C7F64120B7C7BFFE8
:100AE9007A0A79AA120B9C7F22120C2CAB08AA094C
:100AF900A90A120B9C7F22120C2C7F0D120C2C7F41
:100B090064120B7CAB0BAA0CA90D120B9C7F1A1259
:070B19000C2C7F64020B7C31
:050C43007F08020BFF19
:0E0BFF008F80C2A0C2A1D2A2120B78C2A22285
:0B0C0D008F80D2A0C2A1D2A2C2A222FE
:0F0BF0007F38120B757F0E120B757F01020BFF02
:060B20007BFF7A0A797CDC
:100B26008B088A09890AAB08AA09A90A120B4B6025
:100B360013050AE50A7002050914F9120B4BFF1298
:050B46000C0D80E2220D
:03000000020936BC
:0C093600787FE4F6D8FD75812002097D71
:100B4B00BB010689828A83E0225002E722BBFE02A8
:090B5B00E32289828A83E49322DB
:100B6400EB9FF5F0EA9E42F0E99D42F0E89C45F0E7
:010B7400225E
:10094200020800E493A3F8E493A34003F68001F2C3
:1009520008DFF48029E493A3F85407240CC8C333B6
:10096200C4540F4420C8834004F456800146F6DF85
:10097200E4800B0102040810204080900C18E47EF1
:10098200019360BCA3FF543F30E509541FFEE4937A
:10099200A360010ECF54C025E060A840B8E493A341
:1009A200FAE493A3F8E493A3C8C582C8CAC583CA6C
:1009B200F0A3C8C582C8CAC583CADFE9DEE780BE24
:010C220000D1
:00000001FF
